{
  "_format": "hh-sol-artifact-1",
  "contractName": "AnalyticsDashboard",
  "sourceName": "contracts/AnalyticsDashboard.sol",
  "abi": [
    {
      "inputs": [
        {
          "internalType": "uint256",
          "name": "_val1",
          "type": "uint256"
        },
        {
          "internalType": "string",
          "name": "_val2",
          "type": "string"
        },
        {
          "internalType": "string",
          "name": "_val3",
          "type": "string"
        },
        {
          "internalType": "string",
          "name": "_val4",
          "type": "string"
        }
      ],
      "name": "updateSpreadsheetData",
      "outputs": [],
      "stateMutability": "nonpayable",
      "type": "function"
    },
    {
      "inputs": [
        {
          "internalType": "address",
          "name": "",
          "type": "address"
        }
      ],
      "name": "userSpreadsheets",
      "outputs": [
        {
          "internalType": "uint256",
          "name": "val1",
          "type": "uint256"
        },
        {
          "internalType": "string",
          "name": "val2",
          "type": "string"
        },
        {
          "internalType": "string",
          "name": "var3",
          "type": "string"
        },
        {
          "internalType": "string",
          "name": "var4",
          "type": "string"
        }
      ],
      "stateMutability": "view",
      "type": "function"
    }
  ],
  "bytecode": "0x608060405234801561001057600080fd5b506109d8806100206000396000f3fe608060405234801561001057600080fd5b50600436106100365760003560e01c806367030f111461003b578063f4a1238114610057575b600080fd5b61005560048036038101906100509190610496565b61008a565b005b610071600480360381019061006c91906105af565b61013e565b604051610081949392919061066a565b60405180910390f35b6040518060800160405280858152602001848152602001838152602001828152506000803373ffffffffffffffffffffffffffffffffffffffff1673ffffffffffffffffffffffffffffffffffffffff16815260200190815260200160002060008201518160000155602082015181600101908161010891906108d0565b50604082015181600201908161011e91906108d0565b50606082015181600301908161013491906108d0565b5090505050505050565b6000602052806000526040600020600091509050806000015490806001018054610167906106f3565b80601f0160208091040260200160405190810160405280929190818152602001828054610193906106f3565b80156101e05780601f106101b5576101008083540402835291602001916101e0565b820191906000526020600020905b8154815290600101906020018083116101c357829003601f168201915b5050505050908060020180546101f5906106f3565b80601f0160208091040260200160405190810160405280929190818152602001828054610221906106f3565b801561026e5780601f106102435761010080835404028352916020019161026e565b820191906000526020600020905b81548152906001019060200180831161025157829003601f168201915b505050505090806003018054610283906106f3565b80601f01602080910402602001604051908101604052809291908181526020018280546102af906106f3565b80156102fc5780601f106102d1576101008083540402835291602001916102fc565b820191906000526020600020905b8154815290600101906020018083116102df57829003601f168201915b5050505050905084565b6000604051905090565b600080fd5b600080fd5b6000819050919050565b61032d8161031a565b811461033857600080fd5b50565b60008135905061034a81610324565b92915050565b600080fd5b600080fd5b6000601f19601f8301169050919050565b7f4e487b7100000000000000000000000000000000000000000000000000000000600052604160045260246000fd5b6103a38261035a565b810181811067ffffffffffffffff821117156103c2576103c161036b565b5b80604052505050565b60006103d5610306565b90506103e1828261039a565b919050565b600067ffffffffffffffff8211156104015761040061036b565b5b61040a8261035a565b9050602081019050919050565b82818337600083830152505050565b6000610439610434846103e6565b6103cb565b90508281526020810184848401111561045557610454610355565b5b610460848285610417565b509392505050565b600082601f83011261047d5761047c610350565b5b813561048d848260208601610426565b91505092915050565b600080600080608085870312156104b0576104af610310565b5b60006104be8782880161033b565b945050602085013567ffffffffffffffff8111156104df576104de610315565b5b6104eb87828801610468565b935050604085013567ffffffffffffffff81111561050c5761050b610315565b5b61051887828801610468565b925050606085013567ffffffffffffffff81111561053957610538610315565b5b61054587828801610468565b91505092959194509250565b600073ffffffffffffffffffffffffffffffffffffffff82169050919050565b600061057c82610551565b9050919050565b61058c81610571565b811461059757600080fd5b50565b6000813590506105a981610583565b92915050565b6000602082840312156105c5576105c4610310565b5b60006105d38482850161059a565b91505092915050565b6105e58161031a565b82525050565b600081519050919050565b600082825260208201905092915050565b60005b8381101561062557808201518184015260208101905061060a565b60008484015250505050565b600061063c826105eb565b61064681856105f6565b9350610656818560208601610607565b61065f8161035a565b840191505092915050565b600060808201905061067f60008301876105dc565b81810360208301526106918186610631565b905081810360408301526106a58185610631565b905081810360608301526106b98184610631565b905095945050505050565b7f4e487b7100000000000000000000000000000000000000000000000000000000600052602260045260246000fd5b6000600282049050600182168061070b57607f821691505b60208210810361071e5761071d6106c4565b5b50919050565b60008190508160005260206000209050919050565b60006020601f8301049050919050565b600082821b905092915050565b6000600883026107867fffffffffffffffffffffffffffffffffffffffffffffffffffffffffffffffff82610749565b6107908683610749565b95508019841693508086168417925050509392505050565b6000819050919050565b60006107cd6107c86107c38461031a565b6107a8565b61031a565b9050919050565b6000819050919050565b6107e7836107b2565b6107fb6107f3826107d4565b848454610756565b825550505050565b600090565b610810610803565b61081b8184846107de565b505050565b5b8181101561083f57610834600082610808565b600181019050610821565b5050565b601f8211156108845761085581610724565b61085e84610739565b8101602085101561086d578190505b61088161087985610739565b830182610820565b50505b505050565b600082821c905092915050565b60006108a760001984600802610889565b1980831691505092915050565b60006108c08383610896565b9150826002028217905092915050565b6108d9826105eb565b67ffffffffffffffff8111156108f2576108f161036b565b5b6108fc82546106f3565b610907828285610843565b600060209050601f83116001811461093a5760008415610928578287015190505b61093285826108b4565b86555061099a565b601f19841661094886610724565b60005b828110156109705784890151825560018201915060208501945060208101905061094b565b8683101561098d5784890151610989601f891682610896565b8355505b6001600288020188555050505b50505050505056fea2646970667358221220f1ecffe6c053b179561c9fe579e1efb858294b37fd9ef67115a72b658ff555d064736f6c63430008130033",
  "linkReferences": {},
  "deployedLinkReferences": {}
}